1333100HL55010021001311611401101501241
1333101HL55050TIGBOD      200                                                  0000000000000000000                                 0000000000000000   0000000000000000000000000000000000                    00000000 00000000
1333102HL55051
1333200HL55110TIG200BODBO2550762FG     30STDDI 10   000000DMD                              20191121000000002019112100000000000000000000000000000067000016884020191224223307                            1                                                            P
1333300HL55110TIG200BODBOBILANMINC     30STDDI 10   000000EURO                             20180911000000002018091100000000000000000000000000000011500017250020191224223307                            1                                                            P
1333400HL55110TIG200BODBOBLOUSEBODY34  30STDDI 10   000000IMPO                             20190820000000002019082000000000000000000000000000000006000002700020191224223307                            1                                                            P
1333500HL55110TIG200BODBOBLOUSEBODY34  30STDDI 10   000000IMPO                             20191209000000002019120900000000000000000000000000000025000011250020191224223307                            0                                                            P
1333600HL55110TIG200BODBOBLOUSEBODY36  30STDDI 10   000000IMPO                             20190409000000002019040900000000000000000000000000000030000013500020191224223307                            0                                                            P
1333700HL55110TIG200BODBOBLOUSEBODY36  30STDDI 10   000000IMPO                             20190409000000002019040900000000000000000000000000000003200001440020191224223307                            1                                                            P
1333800HL55110TIG200BODBOBLOUSEBODY36  30STDDI 10   000000IMPO                             20190820000000002019082000000000000000000000000000000010000004500020191224223307                            0                                                            P
1333900HL55110TIG200BODBOBLOUSEBODY38  30STDDI 10   000000IMPO                             20190409000000002019040900000000000000000000000000000027500012375020191224223307                            0                                                            P
1334000HL55110TIG200BODBOBLOUSEBODY38  30STDDI 10   000000IMPO                             20190409000000002019040900000000000000000000000000000001000000450020191224223307                            1                                                            P
1334100HL55110TIG200BODBOBLOUSEBODY40  30STDDI 10   000000IMPO                             20190409000000002019040900000000000000000000000000000012900005805020191224223307                            1                                                            P
1334200HL55110TIG200BODBOBLOUSEBODY40  30STDDI 10   000000IMPO                             20190820000000002019082000000000000000000000000000000010000004500020191224223307                            0                                                            P
1334300HL55110TIG200BODBOBLOUSEBODY42  30STDDI 10   000000BODY                             20190628000000002019062800000000000000000000000000000001900000855020191224223307                            1                                                            P
1334400HL55110TIG200BODBOBLOUSEBODY42  30STDDI 10   000000IMPO                             20190409000000002019040900000000000000000000000000000009400004230020191224223307                            1                                                            P
1334500HL55110TIG200BODBOBLOUSEBODY42  30STDDI 10   000000IMPO                             20191209000000002019120900000000000000000000000000000020000009000020191224223307                            0                                                            P
1334600HL55110TIG200BODBOBLOUSEBODY44  30STDDI 10   000000IMPO                             20190409000000002019040900000000000000000000000000000004700002115020191224223307                            1                                                            P
1334700HL55110TIG200BODBOBLOUSEBODY44  30STDDI 10   000000IMPO                             20191209000000002019120900000000000000000000000000000030000013500020191224223307                            0                                                            P
1334800HL55110TIG200BODBOBLOUSENAIL36  30STDDI 10   000000IMPO                             20190820000000002019082000000000000000000000000000000000900000405020191224223307                            1                                                            P
1334900HL55110TIG200BODBOBLOUSENAIL36  30STDDI 10   000000IMPO                             20191209000000002019120900000000000000000000000000000007500003375020191224223307                            0                                                            P
1335000HL55110TIG200BODBOBLOUSENAIL38  30STDDI 10   000000IMPO                             20180920000000002018092000000000000000000000000000000004200001890020191224223307                            1                                                            P
1335100HL55110TIG200BODBOBLOUSENAIL38  30STDDI 10   000000IMPO                             20191209000000002019120900000000000000000000000000000005000002250020191224223307                            1                                                            P
1335200HL55110TIG200BODBOBLOUSENAIL40  30STDDI 10   000000IMPO                             20190820000000002019082000000000000000000000000000000001200000540020191224223307                            1                                                            P
1335300HL55110TIG200BODBOBLOUSENAIL40  30STDDI 10   000000IMPO                             20191209000000002019120900000000000000000000000000000002500001125020191224223307                            1                                                            P
1335400HL55110TIG200BODBOBLOUSENAIL42  30STDDI 10   000000IMPO                             20190820000000002019082000000000000000000000000000000001700000765020191224223307                            1                                                            P
1335500HL55110TIG200BODBOBLOUSENAIL42  30STDDI 10   000000IMPO                             20191209000000002019120900000000000000000000000000000005000002250020191224223307                            1                                                            P
1335600HL55110TIG200BODBOBLOUSENAIL44  30STDDI 10   000000IMPO                             20190409000000002019040900000000000000000000000000000002500001125020191224223307                            0                                                            P
1335700HL55110TIG200BODBOBLOUSENAIL44  30STDDI 10   000000IMPO                             20190820000000002019082000000000000000000000000000000002100000945020191224223307                            1                                                            P
1335800HL55110TIG200BODBOBLOUSENAIL44  30STDDI 10   000000IMPO                             20191209000000002019120900000000000000000000000000000002500001125020191224223307                            1                                                            P
1335900HL55110TIG200BODBOBM001.1       30STDDI 10   000000XANI                             20190409000000002019040900000000000000000000000000000950400131155220191224223307                            0                                                            P
1336000HL55110TIG200BODBOBM001.1       30STDDI 10   000000XANI                             20190409000000002019040900000000000000000000000000000110400015235220191224223307                            1                                                            P
1336100HL55110TIG200BODBOBM001.1       30STDDI 10   000000XANI                             20190424000000002019042400000000000000000000000000003009600415324820191224223307                            0                                                            P
1336200HL55110TIG200BODBOBM001.1       30STDDI 10   000000XANI                             20190522000000002019052200000000000000000000000000000761700105114620191224223307                            0                                                            P
1336300HL55110TIG200BODBOBM001.1       30STDDI 10   000000XANI                             20190620000000002019062000000000000000000000000000000439200060609620191224223307                            0                                                            P
1336400HL55110TIG200BODBOBM001.1       30STDDI 10   000000XANI                             20190626000000002019062600000000000000000000000000000880800121550420191224223307                            0                                                            P
1336500HL55110TIG200BODBOBM001.1       30STDDI 10   000000XANI                             20190724000000002019072400000000000000000000000000002200800303710420191224223307                            0                                                            P
1336600HL55110TIG200BODBOBM001.1       30STDDI 10   000000XANI                             20190812000000002019081200000000000000000000000000000201600027820820191224223307                            0                                                            P
1336700HL55110TIG200BODBOBM001.1       30STDDI 10   000000XANI                             20191021000000002019102100000000000000000000000000006580800908150420191224223307                            0                                                            P
1336800HL55110TIG200BODBOBM001.1       30STDDI 10   000000XANI                             20191127000000002019112700000000000000000000000000003488400481399220191224223307                            0                                                            P
1336900HL55110TIG200BODBOBM002.1       30STDDI 01MQT000000XANI                             20190711000000002019071100000000000000000000000000000024000024720020191224223307                            0                                                            P
1337000HL55110TIG200BODBOBM002.1       30STDDI 10   000000XANI                             20190509000000002019050900000000000000000000000000000115200118656020191224223307                            0                                                            P
1337100HL55110TIG200BODBOBM002.1       30STDDI 10   000000XANI                             20190522000000002019052200000000000000000000000000000349700360191020191224223307                            0                                                            P
1337200HL55110TIG200BODBOBM002.1       30STDDI 10   000000XANI                             20190620000000002019062000000000000000000000000000000240800248024020191224223307                            0                                                            P
1337300HL55110TIG200BODBOBM002.1       30STDDI 10   000000XANI                             20190626000000002019062600000000000000000000000000000252000259560020191224223307                            0                                                            P
1337400HL55110TIG200BODBOBM002.1       30STDDI 10   000000XANI                             20190703000000002019070300000000000000000000000000000427200440016020191224223307                            0                                                            P
1337500HL55110TIG200BODBOBM002.1       30STDDI 10   000000XANI                             20190711000000002019071100000000000000000000000000000170200175306020191224223307                            0                                                            P
1337600HL55110TIG200BODBOBM002.1       30STDDI 10   000000XANI                             20190724000000002019072400000000000000000000000000000028700029561020191224223307                            0                                                            P
1337700HL55110TIG200BODBOBM002.1       30STDDI 10   000000XANI                             20190725000000002019072500000000000000000000000000000316800326304020191224223307                            0                                                            P
1337800HL55110TIG200BODBOBM002.1       30STDDI 10   000000XANI                             20190731000000002019073100000000000000000000000000000720000741600020191224223307                            0                                                            P
1337900HL55110TIG200BODBOBM002.1       30STDDI 10   000000XANI                             20190812000000002019081200000000000000000000000000000191900197657020191224223307                            0                                                            P
1338000HL55110TIG200BODBOBM002.1       30STDDI 10   000000XANI                             20190930000000002019093000000000000000000000000000000568700585761020191224223307                            0                                                            P
1338100HL55110TIG200BODBOBM002.1       30STDDI 10   000000XANI                             20191004000000002019100400000000000000000000000000000167100172113020191224223307                            0                                                            P
1338200HL55110TIG200BODBOBM002.1       30STDDI 10   000000XANI                             20191017000000002019101700000000000000000000000000000789600813288020191224223307                            0                                                            P
1338300HL55110TIG200BODBOBM002.1       30STDDI 10   000000XANI                             20191021000000002019102100000000000000000000000000000252000259560020191224223307                            0                                                            P
1338400HL55110TIG200BODBOBM002.1       30STDDI 10   000000XANI                             20191029000000002019102900000000000000000000000000000282500290975020191224223307                            0                                                            P
1338500HL55110TIG200BODBOBM002.1       30STDDI 10   000000XANI         9042509             20190425000000002019042500000000000000000000000000000124400128132020191224223307                            1                                                            P
1338600HL55110TIG200BODBOBM003         30STDDI 10   000000XANI                             20190930000000002019093000000000000000000000000000000070000042000020191224223307                            0                                                            P
1338700HL55110TIG200BODBOBM003         30STDDI 10   000000XANI                             20190930000000002019093000000000000000000000000000000022600013560020191224223307                            1                                                            P
1338800HL55110TIG200BODBOBM003         30STDDI 10   000000XANI                             20191128000000002019112800000000000000000000000000000099900059940020191224223307                            0                                                            P
1338900HL55110TIG200BODBOBM005.1       30STDDI 10   000000XANI                             20190724000000002019072400000000000000000000000000000022700022700020191224223307                            1                                                            P
1339000HL55110TIG200BODBOBM006         30STDDI 10   000000XANI                             20191017000000002019101700000000000000000000000000000024000022512020191224223307                            0                                                            P
1339100HL55110TIG200BODBOBM006         30STDDI 10   000000XANI                             20191017000000002019101700000000000000000000000000000007400006941220191224223307                            1                                                            P
1339200HL55110TIG200BODBOBM006         30STDDI 10   000000XANI                             20191128000000002019112800000000000000000000000000000040000037520020191224223307                            0                                                            P
1339300HL55110TIG200BODBOBM008.2       30STDDI 10   000000XANI                             20190620000000002019062000000000000000000000000000000017900004475020191224223307                            1                                                            P
1339400HL55110TIG200BODBOBM008.2       30STDDI 10   000000XANI                             20191127000000002019112700000000000000000000000000000108000027000020191224223307                            0                                                            P
1339500HL55110TIG200BODBOBM0105        30STDDI 10   000000DOME                             20190717000000002019071700000000000000000000000000000145000001450020191224223307                            1                                                            P
1339600HL55110TIG200BODBOBM011.1       30STDDI 10   000000DIFF                             20190618000000002019061800000000000000000000000000000011900005950020191224223307                            0                                                            P
1339700HL55110TIG200BODBOBM011.1       30STDDI 10   000000DIFF                             20190618000000002019061800000000000000000000000000000020100010050020191224223307                            1                                                            P
1339800HL55110TIG200BODBOBM056         30STDDI 10   000000LOHM                             20190213000000002019021300000000000000000000000000000007900006636020191224223307                            1                                                            P
1339900HL55110TIG200BODBOBM056         30STDDI 10   000000LOHM                             20191001000000002019100100000000000000000000000000000050000042000020191224223307                            0                                                            P
1340000HL55110TIG200BODBOBM058.2       30STDDI 01MQT000000DIFF                             20190308000000002019030800000000000000000000000000000001000000118020191224223307                            1                                                            P
1340100HL55110TIG200BODBOBM060.3       30STDDI 10   000000DIFF                             20190509000000002019050900000000000000000000000000000018300000549020191224223307                            1                                                            P
1340200HL55110TIG200BODBOBM060.3       30STDDI 10   000000DIFF                             20191024000000002019102400000000000000000000000000000048000000000020191224223307                            0                                                            P
1340300HL55110TIG200BODBOBM061         30STDDI 10   000000DIFF                             20150724000000002015072400000000000000000000000000000000200000017620191224223307                            1                                                            P
1340400HL55110TIG200BODBOBM062.3       30STDDI 10   000000DIFF                             20190702000000002019070200000000000000000000000000000029400000882020191224223307                            1                                                            P
1340500HL55110TIG200BODBOBM062.3       30STDDI 10   000000DIFF                             20191024000000002019102400000000000000000000000000000048000001440020191224223307                            0                                                            P
1340600HL55110TIG200BODBOBM063         30STDDI 10   000000BODY                             20180629000000002018062900000000000000000000000000000001500000123020191224223307                            1                                                            P
1340700HL55110TIG200BODBOBM064.2       30STDDI 10   000000BODY                             20180629000000002018062900000000000000000000000000000001100000091320191224223307                            1                                                            P
1340800HL55110TIG200BODBOBM064.4       30STDDI 10   000000DIFF                             20191010000000002019101000000000000000000000000000000029000002407020191224223307                            1                                                            P
1340900HL55110TIG200BODBOBM064.4       30STDDI 10   000000DIFF                             20191024000000002019102400000000000000000000000000000027500002282520191224223307                            0                                                            P
1341000HL55110TIG200BODBOBM066         30STDDI 10   000000TECH                             20191119000000002019111900000000000000000000000000000012300006888020191224223307                            1                                                            P
1341100HL55110TIG200BODBOBM067.2       30STDBK 00   000010DIFF                             20191031000000002019103100000000000000000000000000000000100000020020191224223307                            0                                                            P
1341200HL55110TIG200BODBOBM067.2       30STDDI 10   000000DIFF                             20191010000000002019101000000000000000000000000000000011400002280020191224223307                            1                                                            P
1341300HL55110TIG200BODBOBM067.2       30STDDI 10   000000DIFF                             20191024000000002019102400000000000000000000000000000050400010080020191224223307                            0                                                            P
1341400HL55110TIG200BODBOBM068.3       30STDDI 10   000000DIFF                             20190702000000002019070200000000000000000000000000000009100000764420191224223307                            1                                                            P
1341500HL55110TIG200BODBOBM068.4       30STDDI 10   000000DIFF                             20190702000000002019070200000000000000000000000000000012000000360020191224223307                            1                                                            P
1341600HL55110TIG200BODBOBM068.4       30STDDI 10   000000DIFF                             20191024000000002019102400000000000000000000000000000048000001440020191224223307                            0                                                            P
1341700HL55110TIG200BODBOBM070.1       30STDDI 10   000000DIFF                             20191010000000002019101000000000000000000000000000000001200000288020191224223307                            1                                                            P
1341800HL55110TIG200BODBOBM070.2       30STDDI 10   000000DIFF                             20191010000000002019101000000000000000000000000000000056200013488020191224223307                            1                                                            P
1341900HL55110TIG200BODBOBM070.2       30STDDI 10   000000DIFF                             20191024000000002019102400000000000000000000000000000052800012672020191224223307                            0                                                            P
1342000HL55110TIG200BODBOBM071.1       30STDDI 10   000000MEDS                             20191017000000002019101700000000000000000000000000000021600008100020191224223307                            0                                                            P
1342100HL55110TIG200BODBOBM071.1       30STDDI 10   000000MEDS                             20191017000000002019101700000000000000000000000000000006500002437520191224223307                            1                                                            P
1342200HL55110TIG200BODBOBM076         30STDDI 10   000000DIFF                             20191120000000002019112000000000000000000000000000000000100000096220191224223307                            1                                                            P
1342300HL55110TIG200BODBOBM076.3       30STDDI 10   000000DIFF                             20190708000000002019070800000000000000000000000000000039000039000020191224223307                            0                                                            P
1342400HL55110TIG200BODBOBM076.3       30STDDI 10   000000DIFF                             20190708000000002019070800000000000000000000000000000007800007800020191224223307                            1                                                            P
1342500HL55110TIG200BODBOBM077.2       30STDDI 10   000000DIFF                             20190308000000002019030800000000000000000000000000000018000016920020191224223307                            0                                                            P
1342600HL55110TIG200BODBOBM077.2       30STDDI 10   000000DIFF                             20190308000000002019030800000000000000000000000000000012000011280020191224223307                            1                                                            P
1342700HL55110TIG200BODBOBM078.1       30STDDI 10   000000BODY                             20190628000000002019062800000000000000000000000000000003700001776020191224223307                            1                                                            P
1342800HL55110TIG200BODBOBM078.2       30STDDI 10   000000DIFF                             20190131000000002019013100000000000000000000000000000026200006550020191224223307                            1                                                            P
1342900HL55110TIG200BODBOBM078.2       30STDDI 10   000000DIFF                             20191010000000002019101000000000000000000000000000000201600050400020191224223307                            0                                                            P
1343000HL55110TIG200BODBOBM079.2       30STDDI 10   000000DIFF                             20190618000000002019061800000000000000000000000000000002000000400020191224223307                            1                                                            P
1343100HL55110TIG200BODBOBM079.2       30STDDI 10   000000DIFF                             20191010000000002019101000000000000000000000000000000050400010080020191224223307                            0                                                            P
1343200HL55110TIG200BODBOBM080.2       30STDDI 10   000000DIFF                             20190618000000002019061800000000000000000000000000000002000001600020191224223307                            1                                                            P
1343300HL55110TIG200BODBOBM081.2       30STDDI 10   000000DIFF                             20190702000000002019070200000000000000000000000000000008000003200020191224223307                            1                                                            P
1343400HL55110TIG200BODBOBM081.2       30STDDI 10   000000DIFF                             20191011000000002019101100000000000000000000000000000048700019480020191224223307                            0                                                            P
1343500HL55110TIG200BODBOBM081.2       30STDDI 10   000000DIFF                             20191029000000002019102900000000000000000000000000000072000028800020191224223307                            0                                                            P
1343600HL55110TIG200BODBOBM083         30STDDI 10   000000SETA                             20190710000000002019071000000000000000000000000000000035400011682020191224223307                            0                                                            P
1343700HL55110TIG200BODBOBM083         30STDDI 10   000000SETA                             20190710000000002019071000000000000000000000000000000053600017688020191224223307                            1                                                            P
1343800HL55110TIG200BODBOBM085.1       30STDDI 10   000000BODY                             20190628000000002019062800000000000000000000000000000003700001091520191224223307                            1                                                            P
1343900HL55110TIG200BODBOBM085.1       30STDDI 10   000000SETA                             20191127000000002019112700000000000000000000000000000098000028910020191224223307                            0                                                            P
1344000HL55110TIG200BODBOBM087.1       30STDDI 10   000000DIFF                             20191024000000002019102400000000000000000000000000000038100019050020191224223307                            1                                                            P
1344100HL55110TIG200BODBOBM089         30STDDI 10   000000SETA                             20160426000000002016042600000000000000000000000000000000100000102520191224223307                            1                                                            P
1344200HL55110TIG200BODBOBM089.1       30STDDI 01MQT000000SETA                             20190710000000002019071000000000000000000000000000000000300000307520191224223307                            1                                                            P
1344300HL55110TIG200BODBOBM089.1       30STDDI 10   000000SETA         888A 021219         20191224000000002019122400000000000000000000000000000050300051557520191224223307                            0                                                            P
1344400HL55110TIG200BODBOBM092.2       30STDDI 10   000000DIFF                             20190702000000002019070200000000000000000000000000000030400001520020191224223307                            1                                                            P
1344500HL55110TIG200BODBOBM092.2       30STDDI 10   000000DIFF                             20191024000000002019102400000000000000000000000000000054300002715020191224223307                            0                                                            P
1344600HL55110TIG200BODBOBM093         30STDDI 10   000000DIFF                             20190702000000002019070200000000000000000000000000000014000000840020191224223307                            1                                                            P
1344700HL55110TIG200BODBOBM093.1       30STDDI 10   000000DIFF                             20190702000000002019070200000000000000000000000000000024600001230020191224223307                            0                                                            P
1344800HL55110TIG200BODBOBM094         30STDDI 10   000000DIFF                             20181203000000002018120300000000000000000000000000000000200000012020191224223307                            1                                                            P
1344900HL55110TIG200BODBOBM094.2       30STDDI 01MQT000000DIFF                             20190702000000002019070200000000000000000000000000000000300000018020191224223307                            1                                                            P
1345000HL55110TIG200BODBOBM094.3       30STDDI 10   000000DIFF                             20190703000000002019070300000000000000000000000000000002700000135020191224223307                            1                                                            P
1345100HL55110TIG200BODBOBM094.3       30STDDI 10   000000DIFF                             20191010000000002019101000000000000000000000000000000049200002460020191224223307                            0                                                            P
1345200HL55110TIG200BODBOBM095.1       30STDDI 10   000000DIFF                             20190725000000002019072500000000000000000000000000000011000000560020191224223307                            1                                                            P
1345300HL55110TIG200BODBOBM096.1       30STDDI 10   000000DIFF                             20190509000000002019050900000000000000000000000000000002600000780020191224223307                            1                                                            P
1345400HL55110TIG200BODBOBM096.1       30STDDI 10   000000DIFF                             20190702000000002019070200000000000000000000000000000002800000840020191224223307                            1                                                            P
1345500HL55110TIG200BODBOBM096.1       30STDDI 10   000000DIFF                             20190904000000002019090400000000000000000000000000000001600000000020191224223307                            0                                                            P
1345600HL55110TIG200BODBOBM096.1       30STDDI 10   000000DIFF                             20191010000000002019101000000000000000000000000000000004800000000020191224223307                            0                                                            P
1345700HL55110TIG200BODBOBM096.1       30STDDI 10   000000DIFF                             20191024000000002019102400000000000000000000000000000004800000000020191224223307                            0                                                            P
1345800HL55110TIG200BODBOBM098.2       30STDDI 10   000000DIFF                             20181226000000002018122600000000000000000000000000000027100000813020191224223307                            1                                                            P
1345900HL55110TIG200BODBOBM099.1       30STDDI 10   000000BODY                             20190628000000002019062800000000000000000000000000000002000000164020191224223307                            1                                                            P
1346000HL55110TIG200BODBOBM099.2       30STDDI 10   000000DIFF                             20190904000000002019090400000000000000000000000000000024900002041820191224223307                            1                                                            P
1346100HL55110TIG200BODBOBM100         30STDDI 10   000000XANI                             20170608000000002017060800000000000000000000000000000030800015554020191224223308                            1                                                            P
1346200HL55110TIG200BODBOBM100         30STDDI 10   000000XANI                             20170926000000002017092600000000000000000000000000000100800050904020191224223308                            0                                                            P
1346300HL55110TIG200BODBOBM101         30STDDI 10   000000DIFF                             20190618000000002019061800000000000000000000000000000008800000880020191224223308                            1                                                            P
1346400HL55110TIG200BODBOBM101         30STDDI 10   000000DIFF                             20191024000000002019102400000000000000000000000000000051400005140020191224223308                            0                                                            P
1346500HL55110TIG200BODBOBM102         30STDDI 10   000000DIFF                             20190618000000002019061800000000000000000000000000000041600000000020191224223308                            0                                                            P
1346600HL55110TIG200BODBOBM104         30STDDI 10   000000DIFF                             20191108000000002019110800000000000000000000000000000260700013035020191224223308                            1                                                            P
1346700HL55110TIG200BODBOBMC13.2       30STDDI 10   000000BODY                             20190628000000002019062800000000000000000000000000000000200000028020191224223308                            1                                                            P
1346800HL55110TIG200BODBOBMC15.1       30STDDI 10   000000DIFF                             20190131000000002019013100000000000000000000000000000000300000055020191224223308                            1                                                            P
1346900HL55110TIG200BODBOBMC15.2       30STDDI 10   000000DIFF                             20181211000000002018121100000000000000000000000000000114000008022020191224223308                            1                                                            P
1347000HL55110TIG200BODBOBMC16.1       30STDDI 10   000000BODY                             20180628000000002018062800000000000000000000000000000037200001264820191224223308                            1                                                            P
1347100HL55110TIG200BODBOBMC16.2       30STDDI 10   000000DIFF                             20181206000000002018120600000000000000000000000000000084000002856020191224223308                            0                                                            P
1347200HL55110TIG200BODBOBMC16.2       30STDDI 10   000000DIFF                             20181206000000002018120600000000000000000000000000000087800002985220191224223308                            1                                                            P
1347300HL55110TIG200BODBOBMC21.1       30STDBK 01MQT000000DIFF                             20181226000000002018122600000000000000000000000000000000100000018020191224223308                            1                                                            P
1347400HL55110TIG200BODBOBMC21.1       30STDDI 01MQT000000DIFF                             20181226000000002018122600000000000000000000000000000002200000384020191224223308                            1                                                            P
1347500HL55110TIG200BODBOBMC21.1       30STDDI 10   000000DIFF                             20181226000000002018122600000000000000000000000000000007100001230020191224223308                            1                                                            P
1347600HL55110TIG200BODBOBMC21.2       30STDDI 10   000000DIFF                             20190930000000002019093000000000000000000000000000000147000025480020191224223308                            0                                                            P
1347700HL55110TIG200BODBOBMC21.2       30STDDI 10   000000DIFF                             20190930000000002019093000000000000000000000000000000098900017138220191224223308                            1                                                            P
1347800HL55110TIG200BODBOBMC21.2       30STDDI 10   000000DIFF                             20191029000000002019102900000000000000000000000000000588000101920020191224223308                            0                                                            P
1347900HL55110TIG200BODBOBMC22.1       30STDDI 01MQT000000DIFF                             20181206000000002018120600000000000000000000000000000001600000000020191224223308                            0                                                            P
1348000HL55110TIG200BODBOBMC23         30STDDI 10   000000BODY                             20180629000000002018062900000000000000000000000000000000100000006020191224223308                            1                                                            P
1348100HL55110TIG200BODBOBMC24.2       30STDDI 10   000000LORC                             20190409000000002019040900000000000000000000000000000189100028365020191224223308                            1                                                            P
1348200HL55110TIG200BODBOBMC29.1       30STDDI 10   000000BODY                             20181228000000002018122800000000000000000000000000000403200018144020191224223308                            0                                                            P
1348300HL55110TIG200BODBOBMC29.1       30STDDI 10   000000DIFF                             20181224000000002018122400000000000000000000000000000274300012343520191224223308                            1                                                            P
1348400HL55110TIG200BODBOBMC31.2       30STDDI 10   000000LORC                             20190409000000002019040900000000000000000000000000000175500026325020191224223308                            1                                                            P
1348500HL55110TIG200BODBOBMC32.2       30STDDI 10   000000LORC                             20190215000000002019021500000000000000000000000000000210600031590020191224223308                            1                                                            P
1348600HL55110TIG200BODBOBMC33.2       30STDDI 10   000000DIFF                             20181224000000002018122400000000000000000000000000000432000000000020191224223308                            0                                                            P
1348700HL55110TIG200BODBOBMC33.2       30STDDI 10   000000DIFF                             20181224000000002018122400000000000000000000000000000037900004565020191224223308                            1                                                            P
1348800HL55110TIG200BODBOBMC40.1       30STDDI 01BLC00001090DI                             20190820000000002019082000000000000000000000000000000074400000744020191224223308                            0                                                            P
1348900HL55110TIG200BODBOBMC40.1       30STDDI 10   000000DIFF                             20181213000000002018121300000000000000000000000000000051000000510020191224223308                            1                                                            P
1349000HL55110TIG200BODBOBMC40.2       30STDDI 10   000000DIFF                             20191001000000002019100100000000000000000000000000000600000000000020191224223308                            0                                                            P
1349100HL55110TIG200BODBOBMC40.2       30STDDI 10   000000DIFF                             20191001000000002019100100000000000000000000000000000033200001826020191224223308                            1                                                            P
1349200HL55110TIG200BODBOBMC45         30STDDI 10   00000090DI                             20171124000000002017112400000000000000000000000000000000200000000020191224223308                            1                                                            P
1349300HL55110TIG200BODBOBMC50         30STDDI 10   000000DIFF                             20181211000000002018121100000000000000000000000000000198000021780020191224223308                            0                                                            P
1349400HL55110TIG200BODBOBMC50         30STDDI 10   000000DIFF                             20181224000000002018122400000000000000000000000000000136800000000020191224223308                            0                                                            P
1349500HL55110TIG200BODBOBMC50         30STDDI 10   000000DIFF                             20181224000000002018122400000000000000000000000000000029200003212020191224223308                            1                                                            P
1349600HL55110TIG200BODBOBMC50.1       30STDDI 10   000000DIFF                             20191129000000002019112900000000000000000000000000000604800000000020191224223308                            0                                                            P
1349700HL55110TIG200BODBOBMC51.1       30STDDI 10   000000DIFF                             20181210000000002018121000000000000000000000000000000279500031009020191224223308                            1                                                            P
1349800HL55110TIG200BODBOBMC51.1       30STDDI 10   000000DIFF                             20190131000000002019013100000000000000000000000000000362600000000020191224223308                            0                                                            P
1349900HL55110TIG200BODBOBMC51.2       30STDDI 10   000000DIFF                             20191129000000002019112900000000000000000000000000000720000079200020191224223308                            0                                                            P
1350000HL55110TIG200BODBOBMC52         30STDBK 10   000000DIFF                             20181224000000002018122400000000000000000000000000000004500000465020191224223308                            1                                                            P
1350100HL55110TIG200BODBOBMC52         30STDDI 10   000000DIFF                             20170518000000002017051800000000000000000000000000000336000000000020191224223308                            0                                                            P
1350200HL55110TIG200BODBOBMC52         30STDDI 10   000000DIFF                             20170612000000002017061200000000000000000000000000000331200034500020191224223308                            0                                                            P
1350300HL55110TIG200BODBOBMC52         30STDDI 10   000000DIFF                             20180312000000002018031200000000000000000000000000000012300001285020191224223308                            1                                                            P
1350400HL55110TIG200BODBOBMC52         30STDDI 10   000000DIFF                             20181210000000002018121000000000000000000000000000000189600019750020191224223308                            0                                                            P
1350500HL55110TIG200BODBOBMC52         30STDDI 10   000000DIFF                             20181224000000002018122400000000000000000000000000000334800034875020191224223308                            0                                                            P
1350600HL55110TIG200BODBOBMC54.1       30STDDI 01BLC000010DIFF                             20181210000000002018121000000000000000000000000000000019200000000020191224223308                            0                                                            P
1350700HL55110TIG200BODBOBMC54.1       30STDDI 10   000000DIFF                             20181210000000002018121000000000000000000000000000000003500000000020191224223308                            1                                                            P
1350800HL55110TIG200BODBOBMC57         30STDDI 10   000000DIFF                             20190618000000002019061800000000000000000000000000000246000061500020191224223308                            0                                                            P
1350900HL55110TIG200BODBOBMC57         30STDDI 10   000000DIFF                             20190618000000002019061800000000000000000000000000000093100023275020191224223308                            1                                                            P
1351000HL55110TIG200BODBOBMC58         30STDDI 10   000000DIFF                             20190904000000002019090400000000000000000000000000000123000000000020191224223308                            0                                                            P
1351100HL55110TIG200BODBOBMC58         30STDDI 10   000000DIFF                             20190904000000002019090400000000000000000000000000000082500020625020191224223308                            1                                                            P
1351200HL55110TIG200BODBOBMC59         30STDDI 10   000000DIFF                             20190618000000002019061800000000000000000000000000000095600023900020191224223308                            1                                                            P
1351300HL55110TIG200BODBOBMC59         30STDDI 10   000000DIFF                             20191029000000002019102900000000000000000000000000000492000000000020191224223308                            0                                                            P
1351400HL55110TIG200BODBOBMC60         30STDDI 10   000000BODY                             20190628000000002019062800000000000000000000000000000102700012987520191224223308                            1                                                            P
1351500HL55110TIG200BODBOBMC60.1       30STDDI 10   000000DIFF                             20191211000000002019121100000000000000000000000000000633600079200020191224223308                            0                                                            P
1351600HL55110TIG200BODBOBMC64         30STDDI 10   000000DIFF                             20190618000000002019061800000000000000000000000000000122900030725020191224223308                            0                                                            P
1351700HL55110TIG200BODBOBMC64         30STDDI 10   000000DIFF                             20190618000000002019061800000000000000000000000000000075300018825020191224223308                            1                                                            P
1351800HL55110TIG200BODBOBMC65         30STDDI 10   000000DIFF                             20191024000000002019102400000000000000000000000000000367200110160020191224223308                            0                                                            P
1351900HL55110TIG200BODBOBMC65         30STDDI 10   000000DIFF                             20191024000000002019102400000000000000000000000000000010500003150020191224223308                            1                                                            P
1352000HL55110TIG200BODBOBMC66         30STDDI 10   000000DIFF                             20191010000000002019101000000000000000000000000000000114000034200020191224223308                            0                                                            P
1352100HL55110TIG200BODBOBMC66         30STDDI 10   000000DIFF                             20191010000000002019101000000000000000000000000000000035200010560020191224223308                            1                                                            P
1352200HL55110TIG200BODBOBMC66         30STDDI 10   000000DIFF                             20191024000000002019102400000000000000000000000000000037200011160020191224223308                            0                                                            P
1352300HL55110TIG200BODBOBMC67         30STDDI 10   000000DIFF                             20190904000000002019090400000000000000000000000000000030200007550020191224223308                            1                                                            P
1352400HL55110TIG200BODBOBMC68         30STDDI 01MQT00000090DI                             20190830000000002019083000000000000000000000000000000000100000030020191224223308                            1                                                            P
1352500HL55110TIG200BODBOBMC68         30STDDI 10   000000DIFF                             20191024000000002019102400000000000000000000000000000367000110100020191224223308                            0                                                            P
1352600HL55110TIG200BODBOBMC68         30STDDI 10   000000DIFF                             20191024000000002019102400000000000000000000000000000019500005850020191224223308                            1                                                            P
1352700HL55110TIG200BODBOBMC69         30STDDI 10   000000BODY                             20190628000000002019062800000000000000000000000000000051800003885020191224223308                            1                                                            P
1352800HL55110TIG200BODBOBMC69         30STDDI 10   000000DIFF                             20190618000000002019061800000000000000000000000000000213900016042520191224223308                            1                                                            P
1352900HL55110TIG200BODBOBMC70         30STDBK 00   000010DIFF                             20191031000000002019103100000000000000000000000000000000600000300020191224223308                            0                                                            P
1353000HL55110TIG200BODBOBMC70         30STDDI 10   000000DIFF                             20190930000000002019093000000000000000000000000000000093600046800020191224223308                            0                                                            P
1353100HL55110TIG200BODBOBMC70         30STDDI 10   000000DIFF                             20190930000000002019093000000000000000000000000000000044600022300020191224223308                            1                                                            P
1353200HL55110TIG200BODBOBMC73         30STDDI 10   000000BODY                             20190628000000002019062800000000000000000000000000000025600000000020191224223308                            1                                                            P
1353300HL55110TIG200BODBOBMC73         30STDDI 10   000000DIFF                             20190509000000002019050900000000000000000000000000000008100001158320191224223308                            1                                                            P
1353400HL55110TIG200BODBOBMC73         30STDDI 10   000000DIFF                             20191029000000002019102900000000000000000000000000000126000000000020191224223308                            0                                                            P
1353500HL55110TIG200BODBOBMC74         30STDDI 10   000000DIFF                             20190703000000002019070300000000000000000000000000000080500012075020191224223308                            1                                                            P
1353600HL55110TIG200BODBOBMC74         30STDDI 10   000000DIFF                             20191029000000002019102900000000000000000000000000000487200000000020191224223308                            0                                                            P
1353700HL55110TIG200BODBOBMC75         30STDDI 10   000000DIFF                             20190904000000002019090400000000000000000000000000000386400000000020191224223308                            0                                                            P
1353800HL55110TIG200BODBOBMC75         30STDDI 10   000000DIFF                             20190904000000002019090400000000000000000000000000000165600024840020191224223308                            1                                                            P
1353900HL55110TIG200BODBOBMC76         30STDDI 10   000000DIFF                             20191129000000002019112900000000000000000000000000000630000063000020191224223308                            0                                                            P
1354000HL55110TIG200BODBOBMC77         30STDDI 10   000000DIFF                             20190930000000002019093000000000000000000000000000000336000000000020191224223308                            0                                                            P
1354100HL55110TIG200BODBOBMC77         30STDDI 10   000000DIFF                             20190930000000002019093000000000000000000000000000000356900016060520191224223308                            1                                                            P
1354200HL55110TIG200BODBOBMC77         30STDDI 10   000000DIFF                             20191129000000002019112900000000000000000000000000000672000030240020191224223308                            0                                                            P
1354300HL55110TIG200BODBOBMC79         30STDDI 10   000000DIFF                             20190904000000002019090400000000000000000000000000000096300048631520191224223308                            1                                                            P
1354400HL55110TIG200BODBOBMC79         30STDDI 10   000000DIFF                             20191029000000002019102900000000000000000000000000000557400000000020191224223308                            0                                                            P
1354500HL55110TIG200BODBOBMC80         30STDDI 10   000000DIFF                             20190904000000002019090400000000000000000000000000000095200048379020191224223308                            1                                                            P
1354600HL55110TIG200BODBOBMC80         30STDDI 10   000000DIFF                             20191029000000002019102900000000000000000000000000000371400045753020191224223308                            0                                                            P
1354700HL55110TIG200BODBOBMC80         30STDDI 10   000000DIFF                             20191029000000002019102900000000000000000000000000000150600076053020191224223308                            1                                                            P
1354800HL55110TIG200BODBOBMC81         30STDDI 10   000000DIFF                             20190904000000002019090400000000000000000000000000000192000000000020191224223308                            0                                                            P
1354900HL55110TIG200BODBOBMC81         30STDDI 10   000000DIFF                             20190904000000002019090400000000000000000000000000000099800025449020191224223308                            1                                                            P
1355000HL55110TIG200BODBOBMC81         30STDDI 10   000000DIFF                             20191030000000002019103000000000000000000000000000000547800000000020191224223308                            0                                                            P
1355100HL55110TIG200BODBOBMC82         30STDDI 01MQT000000DIFF                             20190618000000002019061800000000000000000000000000000002600000000020191224223308                            1                                                            P
1355200HL55110TIG200BODBOBMC82         30STDDI 10   000000DIFF                             20190904000000002019090400000000000000000000000000000096000000000020191224223308                            0                                                            P
1355300HL55110TIG200BODBOBMC82         30STDDI 10   000000DIFF                             20190904000000002019090400000000000000000000000000000152500038887520191224223308                            1                                                            P
1355400HL55110TIG200BODBOBMC82         30STDDI 10   000000DIFF                             20191029000000002019102900000000000000000000000000000502800000000020191224223308                            0                                                            P
1355500HL55110TIG200BODBOBMV30         30STDBK 00   00001090DI                             20190727000000002019072700000000000000000000000000000016800002478020191224223308                            0                                                            P
1355600HL55110TIG200BODBOBMV30.1       30STDBK 00   00001090DI                             20190727000000002019072700000000000000000000000000000283800017028020191224223308                            0                                                            P
1355700HL55110TIG200BODBOBMV30.1       30STDBK 01MQT000000DIFF                             20180801000000002018080100000000000000000000000000000010900000654020191224223308                            1                                                            P
1355800HL55110TIG200BODBOBMV30.2       30STDDI 00   000010DIFF                             20190308000000002019030800000000000000000000000000000009000000270020191224223308                            0                                                            P
1355900HL55110TIG200BODBOBMV30.2       30STDDI 01MQT00000090DI                             20190930000000002019093000000000000000000000000000000001100000033020191224223308                            1                                                            P
1356000HL55110TIG200BODBOBMV30.2       30STDDI 01MQT000000DIFF                             20190703000000002019070300000000000000000000000000000009400000282020191224223308                            1                                                            P
1356100HL55110TIG200BODBOBMV31.1       30STDDI 01BLC00000090DI                             20190930000000002019093000000000000000000000000000000022000001644020191224223308                            0                                                            P
1356200HL55110TIG200BODBOBMV31.1       30STDDI 01BLC000010BODY                             20190627000000002019062700000000000000000000000000000008100000603020191224223308                            0                                                            P
1356300HL55110TIG200BODBOBMV31.1       30STDDI 10   000000BODY                             20190627000000002019062700000000000000000000000000000085300006396020191224223308                            0                                                            P
1356400HL55110TIG200BODBOBMV31.1       30STDDI 10   000000BODY                             20190627000000002019062700000000000000000000000000000046900003516020191224223308                            1                                                            P
1356500HL55110TIG200BODBOBMV31.2       30STDDI 01BLC00000090DI                             20190930000000002019093000000000000000000000000000000002400000096020191224223308                            0                                                            P
1356600HL55110TIG200BODBOBMV31.2       30STDDI 01BLC000010DIFF                             20181004000000002018100400000000000000000000000000000014400000576020191224223308                            0                                                            P
1356700HL55110TIG200BODBOBMV31.2       30STDDI 10   000000DIFF                             20181224000000002018122400000000000000000000000000000008500000340020191224223308                            1                                                            P
1356800HL55110TIG200BODBOBMV31.3       30STDDI 10   000000DIFF                             20190725000000002019072500000000000000000000000000000139200005568020191224223308                            1                                                            P
1356900HL55110TIG200BODBOBMV31.3       30STDDI 10   000000DIFF                             20191002000000002019100200000000000000000000000000000168000000000020191224223308                            0                                                            P
1357000HL55110TIG200BODBOBMV32.1       30STDBK 10   00000090DI                             20190930000000002019093000000000000000000000000000000000700000052020191224223308                            0                                                            P
1357100HL55110TIG200BODBOBMV32.1       30STDDI 10   00000090DI                             20190830000000002019083000000000000000000000000000000007600000576020191224223308                            1                                                            P
1357200HL55110TIG200BODBOBMV33.1       30STDDI 10   00000090DI                             20190930000000002019093000000000000000000000000000000003400000171020191224223308                            0                                                            P
1357300HL55110TIG200BODBOBMV33.1       30STDDI 10   000000DIFF                             20170720000000002017072000000000000000000000000000000416400021514020191224223308                            0                                                            P
1357400HL55110TIG200BODBOBMV33.1       30STDDI 10   000000DIFF                             20180309000000002018030900000000000000000000000000000291600015066020191224223308                            0                                                            P
1357500HL55110TIG200BODBOBMV33.1       30STDDI 10   000000DIFF                             20180309000000002018030900000000000000000000000000000002400000131020191224223308                            1                                                            P
1357600HL55110TIG200BODBOBMV33.1       30STDDI 10   000000DIFF                             20180727000000002018072700000000000000000000000000000030000001550020191224223308                            0                                                            P
1357700HL55110TIG200BODBOBMV33.1       30STDDI 10   000000DIFF                             20180801000000002018080100000000000000000000000000000051000002635020191224223308                            0                                                            P
1357800HL55110TIG200BODBOBMV33.1       30STDDI 10   000000DIFF                             20180813000000002018081300000000000000000000000000000030600001581020191224223308                            0                                                            P
1357900HL55110TIG200BODBOBMV33.1       30STDDI 10   000000DIFF                             20180824000000002018082400000000000000000000000000000024600001271020191224223308                            0                                                            P
1358000HL55110TIG200BODBOBMV33.1       30STDDI 10   000000DIFF                             20181224000000002018122400000000000000000000000000000133200006882020191224223308                            0                                                            P
1358100HL55110TIG200BODBOBMV34.1       30STDDI 01BLC00000090DI                             20190930000000002019093000000000000000000000000000000002700000098920191224223308                            0                                                            P
1358200HL55110TIG200BODBOBMV34.1       30STDDI 10   000000DIFF                             20180824000000002018082400000000000000000000000000000017200000653220191224223308                            1                                                            P
1358300HL55110TIG200BODBOBMV35.1       30STDDI 01BLC00000090DI                             20190930000000002019093000000000000000000000000000000001200000108020191224223308                            0                                                            P
1358400HL55110TIG200BODBOBMV35.1       30STDDI 10   000000BODY                             20190628000000002019062800000000000000000000000000000015800001422020191224223308                            1                                                            P
1358500HL55110TIG200BODBOBMV35.2       30STDDI 01MQT000000DIFF                             20190131000000002019013100000000000000000000000000000001000000050020191224223308                            1                                                            P
1358600HL55110TIG200BODBOBMV36.1       30STDDI 01BLC00000090DI                             20190930000000002019093000000000000000000000000000000016500000822020191224223308                            0                                                            P
1358700HL55110TIG200BODBOBMV36.1       30STDDI 01BLC00001090DI                             20190727000000002019072700000000000000000000000000000019200000960020191224223308                            0                                                            P
1358800HL55110TIG200BODBOBMV36.1       30STDDI 10   000000DIFF                             20180824000000002018082400000000000000000000000000000032200001606020191224223308                            0                                                            P
1358900HL55110TIG200BODBOBMV36.1       30STDDI 10   000000DIFF                             20180824000000002018082400000000000000000000000000000081100004054020191224223308                            1                                                            P
1359000HL55110TIG200BODBOBMV37.1       30STDBK 00   00001090DI                             20190727000000002019072700000000000000000000000000000343200024024020191224223308                            0                                                            P
1359100HL55110TIG200BODBOBMV38.1       30STDBK 00   00001090DI                             20190727000000002019072700000000000000000000000000000169900012458020191224223308                            0                                                            P
1359200HL55110TIG200BODBOBMV38.1       30STDBK 10   00000090DI                             20190727000000002019072700000000000000000000000000000019200001408020191224223308                            0                                                            P
1359300HL55110TIG200BODBOBMV38.2       30STDDI 01BLC00001090DI                             20190819000000002019081900000000000000000000000000000040300000000020191224223308                            0                                                            P
1359400HL55110TIG200BODBOBMV38.2       30STDDI 10   00000090DI                             20190828000000002019082800000000000000000000000000000025800000000020191224223308                            1                                                            P
1359500HL55110TIG200BODBOBMV39         30STDDI 10   000000BODY                             20181228000000002018122800000000000000000000000000000002400000112820191224223308                            1                                                            P
1359600HL55110TIG200BODBOBMV39.1       30STDBK 00   00001090DI                             20190727000000002019072700000000000000000000000000000142200004977020191224223308                            0                                                            P
1359700HL55110TIG200BODBOBMV39.2       30STDDI 01BLC000010DIFF                             20181120000000002018112000000000000000000000000000000002400000000020191224223308                            0                                                            P
1359800HL55110TIG200BODBOBMV39.2       30STDDI 10   000000DIFF                             20181120000000002018112000000000000000000000000000000041700001251020191224223308                            1                                                            P
1359900HL55110TIG200BODBOBMV40.1       30STDDI 01BLC00000090DI                             20190930000000002019093000000000000000000000000000000008700002354020191224223308                            0                                                            P
1360000HL55110TIG200BODBOBMV40.1       30STDDI 01BLC000010DIFF                             20190308000000002019030800000000000000000000000000000004900001328020191224223308                            0                                                            P
1360100HL55110TIG200BODBOBMV40.1       30STDDI 10   000000DIFF                             20190308000000002019030800000000000000000000000000000028600007757020191224223308                            1                                                            P
1360200HL55110TIG200BODBOBMV41         30STDDI 10   000000BODY                             20180629000000002018062900000000000000000000000000000004600000386220191224223308                            1                                                            P
1360300HL55110TIG200BODBOBMV42.1       30STDDI 00   000010BODY                             20181227000000002018122700000000000000000000000000000005800000000020191224223308                            0                                                            P
1360400HL55110TIG200BODBOBMV42.1       30STDDI 10   00000090DI                             20190930000000002019093000000000000000000000000000000006400000000020191224223308                            0                                                            P
1360500HL55110TIG200BODBOBMV42.1       30STDDI 10   000000BODY                             20181227000000002018122700000000000000000000000000000112100000000020191224223308                            1                                                            P
1360600HL55110TIG200BODBOBMV43.1       30STDDI 01BLC00000090DI                             20190930000000002019093000000000000000000000000000000002000000392020191224223308                            0                                                            P
1360700HL55110TIG200BODBOBMV43.1       30STDDI 10   00000090DI                             20190509000000002019050900000000000000000000000000000018800003696020191224223308                            1                                                            P
1360800HL55110TIG200BODBOBMV43.2       30STDDI 10   000000DIFF                             20190703000000002019070300000000000000000000000000000280800140400020191224223308                            0                                                            P
1360900HL55110TIG200BODBOBMV43.2       30STDDI 10   000000DIFF                             20191024000000002019102400000000000000000000000000000109200054600020191224223308                            0                                                            P
1361000HL55110TIG200BODBOBMV43.2       30STDDI 10   000000DIFF                             20191024000000002019102400000000000000000000000000000091500045750020191224223308                            1                                                            P
1361100HL55110TIG200BODBOBMV44.1       30STDDI 10   000000BODY                             20190628000000002019062800000000000000000000000000000005900000000020191224223308                            1                                                            P
1361200HL55110TIG200BODBOBMV44.2       30STDDI 01MQT000000DIFF                             20190308000000002019030800000000000000000000000000000002000000000020191224223308                            1                                                            P
1361300HL55110TIG200BODBOBMV44.2       30STDDI 10   000000DIFF                             20191024000000002019102400000000000000000000000000000259800019485020191224223308                            1                                                            P
1361400HL55110TIG200BODBOBMV45.1       30STDDI 01BLC00000090DI                             20190930000000002019093000000000000000000000000000000010100001664020191224223308                            0                                                            P
1361500HL55110TIG200BODBOBMV45.1       30STDDI 01BLC00001090DI                             20190527000000002019052700000000000000000000000000000003000000492020191224223308                            0                                                            P
1361600HL55110TIG200BODBOBMV45.1       30STDDI 10   00000090DI                             20190527000000002019052700000000000000000000000000000037100006092020191224223308                            0                                                            P
1361700HL55110TIG200BODBOBMV45.1       30STDDI 10   00000090DI                             20190527000000002019052700000000000000000000000000000037000006068020191224223308                            1                                                            P
1361800HL55110TIG200BODBOBMV46.1       30STDDI 01BLC00000090DI                             20190930000000002019093000000000000000000000000000000008700000068020191224223308                            0                                                            P
1361900HL55110TIG200BODBOBMV46.1       30STDDI 01BLC000010BODY                             20190628000000002019062800000000000000000000000000000004800000032020191224223308                            0                                                            P
1362000HL55110TIG200BODBOBMV46.1       30STDDI 10   000000BODY                             20190628000000002019062800000000000000000000000000000034300000232020191224223308                            0                                                            P
1362100HL55110TIG200BODBOBMV46.1       30STDDI 10   000000BODY                             20190628000000002019062800000000000000000000000000000018700000128020191224223308                            1                                                            P
1362200HL55110TIG200BODBOBMV46.3       30STDDI 10   000000DIFF                             20190702000000002019070200000000000000000000000000000065000002600020191224223308                            0                                                            P
1362300HL55110TIG200BODBOBMV46.3       30STDDI 10   000000DIFF                             20190702000000002019070200000000000000000000000000000008300000332020191224223308                            1                                                            P
1362400HL55110TIG200BODBOBMV46.3       30STDDI 10   000000DIFF                             20191129000000002019112900000000000000000000000000000780000031200020191224223308                            0                                                            P
1362500HL55110TIG200BODBOBMV46.3       30STDDI 10   000000DIFF                             20191129000000002019112900000000000000000000000000000130400005216020191224223308                            1                                                            P
1362600HL55110TIG200BODBOBMV47.1       30STDDI 01BLC00000090DI                             20190930000000002019093000000000000000000000000000000009700002337720191224223308                            0                                                            P
1362700HL55110TIG200BODBOBMV47.1       30STDDI 01BLC000010DIFF                             20180813000000002018081300000000000000000000000000000008100001952120191224223308                            0                                                            P
1362800HL55110TIG200BODBOBMV47.1       30STDDI 10   000000DIFF                             20180813000000002018081300000000000000000000000000000025900006241920191224223308                            0                                                            P
1362900HL55110TIG200BODBOBMV47.1       30STDDI 10   000000DIFF                             20180813000000002018081300000000000000000000000000000025000006025020191224223308                            1                                                            P
1363000HL55110TIG200BODBOBMV51.2       30STDDI 10   000000DIFF                             20190904000000002019090400000000000000000000000000000549500027475020191224223308                            1                                                            P
1363100HL55110TIG200BODBOBMV51.2       30STDDI 10   000000DIFF                             20191001000000002019100100000000000000000000000000001200000000000020191224223308                            0                                                            P
1363200HL55110TIG200BODBOBMV52.1       30STDDI 00   00001090DI                             20190727000000002019072700000000000000000000000000000005400002160020191224223308                            0                                                            P
1363300HL55110TIG200BODBOBMV52.1       30STDDI 10   000000BODY                             20190628000000002019062800000000000000000000000000000004600001840020191224223308                            1                                                            P
1363400HL55110TIG200BODBOBMV52.2       30STDDI 00   000010DIFF                             20181210000000002018121000000000000000000000000000000007800003120020191224223308                            0                                                            P
1363500HL55110TIG200BODBOBMV52.2       30STDDI 10   000000DIFF                             20181224000000002018122400000000000000000000000000000561600224640020191224223308                            0                                                            P
1363600HL55110TIG200BODBOBMV52.2       30STDDI 10   000000DIFF                             20181224000000002018122400000000000000000000000000000116700046680020191224223308                            1                                                            P
1363700HL55110TIG200BODBOBMV54         30STDDI 10   00000090DI                             20190727000000002019072700000000000000000000000000000057600000576020191224223308                            0                                                            P
1363800HL55110TIG200BODBOBMV55.1       30STDDI 10   00000090DI                             20190820000000002019082000000000000000000000000000000000800000000020191224223308                            0                                                            P
1363900HL55110TIG200BODBOBMV55.2       30STDDI 10   000000DIFF                             20190308000000002019030800000000000000000000000000000282300004234520191224223308                            1                                                            P
1364000HL55110TIG200BODBOBMV55.2       30STDDI 10   000000DIFF                             20190702000000002019070200000000000000000000000000000288000004320020191224223308                            0                                                            P
1364100HL55110TIG200BODBOBMV56         30STDBK 10   000000DIFF                             20181226000000002018122600000000000000000000000000000017000000000020191224223308                            1                                                            P
1364200HL55110TIG200BODBOBMV57         30STDBK 00   00001090DI                             20190727000000002019072700000000000000000000000000000004800000000020191224223308                            0                                                            P
1364300HL55110TIG200BODBOBMV57         30STDBK 10   000000DIFF                             20181120000000002018112000000000000000000000000000000024500000000020191224223308                            1                                                            P
1364400HL55110TIG200BODBOBMV58         30STDBK 10   000000DIFF                             20180731000000002018073100000000000000000000000000000091900000000020191224223308                            1                                                            P
1364500HL55110TIG200BODBOBMV58.1       30STDDI 01BLC000010DIFF                             20181224000000002018122400000000000000000000000000000013800000000020191224223308                            0                                                            P
1364600HL55110TIG200BODBOBMV58.1       30STDDI 10   000000DIFF                             20181224000000002018122400000000000000000000000000000006300002394020191224223308                            1                                                            P
1364700HL55110TIG200BODBOBMV58.2       30STDDI 10   000000DIFF                             20190702000000002019070200000000000000000000000000000078000000000020191224223308                            0                                                            P
1364800HL55110TIG200BODBOBMV58.2       30STDDI 10   000000DIFF                             20190702000000002019070200000000000000000000000000000031500011970020191224223308                            1                                                            P
1364900HL55110TIG200BODBOBMV58.2       30STDDI 10   000000DIFF                             20191029000000002019102900000000000000000000000000000421200000000020191224223308                            0                                                            P
1365000HL55110TIG200BODBOBMV58.2       30STDDI 10   000000DIFF                             20191029000000002019102900000000000000000000000000000140400053352020191224223308                            1                                                            P
1365100HL55110TIG200BODBOBMV60         30STDBK 10   000000DIFF                             20190213000000002019021300000000000000000000000000000033000000000020191224223308                            0                                                            P
1365200HL55110TIG200BODBOBMV60         30STDBK 10   000000DIFF                             20190213000000002019021300000000000000000000000000000287400000000020191224223308                            1                                                            P
1365300HL55110TIG200BODBOBMV60.1       30STDDI 01BLC000010DIFF                             20190213000000002019021300000000000000000000000000000025800000387020191224223308                            0                                                            P
1365400HL55110TIG200BODBOBMV60.1       30STDDI 10   000000DIFF                             20190213000000002019021300000000000000000000000000000309200004638020191224223308                            1                                                            P
1365500HL55110TIG200BODBOBMV60.1       30STDDI 10   000000DIFF                             20190904000000002019090400000000000000000000000000000168000002520020191224223308                            0                                                            P
1365600HL55110TIG200BODBOBMV61         30STDBK 00   000010DIFF                             20190213000000002019021300000000000000000000000000000001200000000020191224223308                            0                                                            P
1365700HL55110TIG200BODBOBMV61         30STDBK 10   000000DIFF                             20190213000000002019021300000000000000000000000000000015000000000020191224223308                            0                                                            P
1365800HL55110TIG200BODBOBMV61         30STDBK 10   000000DIFF                             20190213000000002019021300000000000000000000000000000272300000000020191224223308                            1                                                            P
1365900HL55110TIG200BODBOBMV61.1       30STDDI 00   000010DIFF                             20190213000000002019021300000000000000000000000000000010200000408020191224223308                            0                                                            P
1366000HL55110TIG200BODBOBMV61.1       30STDDI 10   000000DIFF                             20190904000000002019090400000000000000000000000000000167900006716020191224223308                            0                                                            P
1366100HL55110TIG200BODBOBMV61.1       30STDDI 10   000000DIFF                             20190904000000002019090400000000000000000000000000000066200002648020191224223308                            1                                                            P
1366200HL55110TIG200BODBOBMV62         30STDBK 00   00001090DI                             20190727000000002019072700000000000000000000000000000023200000000020191224223308                            0                                                            P
1366300HL55110TIG200BODBOBMV62         30STDBK 10   000000BODY                             20190628000000002019062800000000000000000000000000000193800000000020191224223308                            1                                                            P
1366400HL55110TIG200BODBOBMV63         30STDBK 00   00001090DI                             20190727000000002019072700000000000000000000000000000042000000000020191224223308                            0                                                            P
1366500HL55110TIG200BODBOBMV63         30STDBK 10   000000DIFF                             20180710000000002018071000000000000000000000000000000380400000000020191224223308                            1                                                            P
1366600HL55110TIG200BODBOBMV63.1       30STDDI 00   000010DIFF                             20190702000000002019070200000000000000000000000000000033600000336020191224223308                            0                                                            P
1366700HL55110TIG200BODBOBMV63.1       30STDDI 10   000000DIFF                             20190904000000002019090400000000000000000000000000000156000001560020191224223308                            0                                                            P
1366800HL55110TIG200BODBOBMV63.1       30STDDI 10   000000DIFF                             20190930000000002019093000000000000000000000000000000330700003307020191224223308                            1                                                            P
1366900HL55110TIG200BODBOBMV63.1       30STDDI 10   000000DIFF                             20191029000000002019102900000000000000000000000000000520600005206020191224223308                            1                                                            P
1367000HL55110TIG200BODBOBMV69         30STDBK 00   00001090DI                             20190318000000002019031800000000000000000000000000000030000000000020191224223308                            0                                                            P
1367100HL55110TIG200BODBOBMV69         30STDBK 10   00000090DI                             20190318000000002019031800000000000000000000000000000500400000000020191224223308                            1                                                            P
1367200HL55110TIG200BODBOBMV69.1       30STDDI 00   000010DIFF                             20181107000000002018110700000000000000000000000000000018000000360020191224223308                            0                                                            P
1367300HL55110TIG200BODBOBMV69.1       30STDDI 10   000000DIFF                             20181224000000002018122400000000000000000000000000000130500002610020191224223308                            1                                                            P
1367400HL55110TIG200BODBOBMV69.1       30STDDI 10   000000DIFF                             20191029000000002019102900000000000000000000000000000576000011520020191224223308                            0                                                            P
1367500HL55110TIG200BODBOBMV70         30STDDI 00   000010DIFF                             20181003000000002018100300000000000000000000000000000001800000018020191224223309                            0                                                            P
1367600HL55110TIG200BODBOBMV70         30STDDI 10   000000DIFF                             20181224000000002018122400000000000000000000000000000168000001680020191224223309                            0                                                            P
1367700HL55110TIG200BODBOBMV70         30STDDI 10   000000DIFF                             20181224000000002018122400000000000000000000000000000084100003364020191224223309                            1                                                            P
1367800HL55110TIG200BODBOBMV70         30STDDI 10   000000DIFF                             20190930000000002019093000000000000000000000000000000499900004876020191224223309                            0                                                            P
1367900HL55110TIG200BODBOBMV71         30STDDI 00   000010DIFF                             20181224000000002018122400000000000000000000000000000003000000030020191224223309                            0                                                            P
1368000HL55110TIG200BODBOBMV71         30STDDI 10   000000DIFF                             20181120000000002018112000000000000000000000000000001147400011451020191224223309                            0                                                            P
1368100HL55110TIG200BODBOBMV71         30STDDI 10   000000DIFF                             20181224000000002018122400000000000000000000000000000286100002851520191224223309                            0                                                            P
1368200HL55110TIG200BODBOBMV71         30STDDI 10   000000DIFF                             20181224000000002018122400000000000000000000000000000034600000077020191224223309                            1                                                            P
1368300HL55110TIG200BODBOBMV73         30STDDI 00   000010DIFF                             20181120000000002018112000000000000000000000000000000010200000102020191224223309                            0                                                            P
1368400HL55110TIG200BODBOBMV73         30STDDI 10   00000090DI                             20190930000000002019093000000000000000000000000000000004800000048020191224223309                            0                                                            P
1368500HL55110TIG200BODBOBMV73         30STDDI 10   000000DIFF                             20181120000000002018112000000000000000000000000000000274400000224020191224223309                            1                                                            P
1368600HL55110TIG200BODBOBMV73         30STDDI 10   000000DIFF                             20181224000000002018122400000000000000000000000000000129600001296020191224223309                            0                                                            P
1368700HL55110TIG200BODBOBMV76         30STDDI 10   000000DIFF                             20181211000000002018121100000000000000000000000000000024200000363020191224223309                            0                                                            P
1368800HL55110TIG200BODBOBMV76         30STDDI 10   000000DIFF                             20181211000000002018121100000000000000000000000000000299800004504520191224223309                            1                                                            P
1368900HL55110TIG200BODBOBMV77         30STDDI 10   000000DIFF                             20191211000000002019121100000000000000000000000000000280800000000020191224223309                            0                                                            P
1369000HL55110TIG200BODBOBMV77         30STDDI 10   000000DIFF                             20191211000000002019121100000000000000000000000000000328800016440020191224223309                            1                                                            P
1369100HL55110TIG200BODBOBMV78         30STDDI 10   000000DIFF                             20191220000000002019122000000000000000000000000000000422400021120020191224223309                            0                                                            P
1369200HL55110TIG200BODBOBMV79         30STDDI 10   000000DIFF                             20190930000000002019093000000000000000000000000000000168000000000020191224223309                            0                                                            P
1369300HL55110TIG200BODBOBMV79         30STDDI 10   000000DIFF                             20190930000000002019093000000000000000000000000000000201400010070020191224223309                            1                                                            P
1369400HL55110TIG200BODBOBMV81         30STDDI 10   000000DIFF                             20191002000000002019100200000000000000000000000000000127300006365020191224223309                            1                                                            P
1369500HL55110TIG200BODBOBMV81         30STDDI 10   000000DIFF                             20191024000000002019102400000000000000000000000000000084000004200020191224223309                            0                                                            P
1369600HL55110TIG200BODBOBMV82         30STDDI 00   000010DIFF                             20181224000000002018122400000000000000000000000000000060600000606020191224223309                            0                                                            P
1369700HL55110TIG200BODBOBMV82         30STDDI 10   000000DIFF                             20181224000000002018122400000000000000000000000000000576000005760020191224223309                            0                                                            P
1369800HL55110TIG200BODBOBMV82         30STDDI 10   000000DIFF                             20181224000000002018122400000000000000000000000000000114100001141020191224223309                            1                                                            P
1369900HL55110TIG200BODBOBMV83         30STDDI 00   000010DIFF                             20190618000000002019061800000000000000000000000000000052800000528020191224223309                            0                                                            P
1370000HL55110TIG200BODBOBMV83         30STDDI 10   000000DIFF                             20190702000000002019070200000000000000000000000000000236200002362020191224223309                            1                                                            P
1370100HL55110TIG200BODBOBMV83         30STDDI 10   000000DIFF                             20190904000000002019090400000000000000000000000000000575900005759020191224223309                            0                                                            P
1370200HL55110TIG200BODBOBMV83         30STDDI 10   000000DIFF                             20190930000000002019093000000000000000000000000000000576000005760020191224223309                            0                                                            P
1370300HL55110TIG200BODBOBMV84         30STDDI 01MQT000000DIFF                             20181224000000002018122400000000000000000000000000000078000000000020191224223309                            0                                                            P
1370400HL55110TIG200BODBOBMV84         30STDDI 10   000000DIFF                             20191002000000002019100200000000000000000000000000000149000005960020191224223309                            1                                                            P
1370500HL55110TIG200BODBOBMV85         30STDDI 00   000010DIFF                             20181224000000002018122400000000000000000000000000000043800000000020191224223309                            0                                                            P
1370600HL55110TIG200BODBOBMV85         30STDDI 10   00000090DI                             20190930000000002019093000000000000000000000000000000002400000000020191224223309                            0                                                            P
1370700HL55110TIG200BODBOBMV85         30STDDI 10   000000DIFF                             20181224000000002018122400000000000000000000000000000158400000000020191224223309                            0                                                            P
1370800HL55110TIG200BODBOBMV85         30STDDI 10   000000DIFF                             20181224000000002018122400000000000000000000000000000099300003972020191224223309                            1                                                            P
1370900HL55110TIG200BODBOBMV86         30STDDI 01BLC00001090DI                             20190819000000002019081900000000000000000000000000000054000000540020191224223309                            0                                                            P
1371000HL55110TIG200BODBOBMV86         30STDDI 10   000000DIFF                             20191029000000002019102900000000000000000000000000001152000011520020191224223309                            0                                                            P
1371100HL55110TIG200BODBOBMV86         30STDDI 10   000000DIFF                             20191029000000002019102900000000000000000000000000000116200001162020191224223309                            1                                                            P
